:020000040000FA
:100000000C945D000C9485000C9485000C94850084
:100010000C9485000C9485000C9485000C9485004C
:100020000C9485000C9485000C9485000C9485003C
:100030000C9485000C9485000C9485000C9485002C
:100040000C94D4040C9485000C9444050C941E0567
:100050000C9485000C9485000C9485000C9485000C
:100060000C9485000C9485000000000024002700FB
:100070002A0000000000250028002B0004040404CE
:100080000404040402020202020203030303030342
:10009000010204081020408001020408102001021F
:1000A00004081020000000080002010000030407FB
:1000B0000000000000000000BD0811241FBECFEFAB
:1000C000D8E0DEBFCDBF22E0A8E5B1E001C01D92BF
:1000D000A933B207E1F711E0A0E0B1E0EEE9FBE1FE
:1000E00002C005900D92A835B107D9F710E0CDE513
:1000F000D0E004C02197FE010E94C70BCC35D10788
:10010000C9F70E9476050C94CD0D0C94000090E088
:10011000FC01EC55FF4F2491FC01E057FF4F349157
:10012000FC01E458FF4FE491EE23C9F0222339F09B
:10013000233001F1A8F4213019F1223029F1F0E047
:10014000EE0FFF1FEE58FF4FA591B4918FB7F894B3
:10015000EC91611126C030953E233C938FBF0895EA
:100160002730A9F02830C9F0243049F78091800069
:100170008F7D03C0809180008F7780938000DFCFD8
:1001800084B58F7784BDDBCF84B58F7DFBCF809125
:10019000B0008F778093B000D2CF8091B0008F7D78
:1001A000F9CF3E2BDACF3FB7F8948091940190912C
:1001B0009501A0919601B091970126B5A89B05C025
:1001C0002F3F19F00196A11DB11D3FBFBA2FA92FD6
:1001D000982F8827BC01CD01620F711D811D911DD3
:1001E00042E0660F771F881F991F4A95D1F708953F
:1001F0002FB7F894609190017091910180919201D4
:10020000909193012FBF0895AF92BF92CF92DF924A
:10021000EF92FF920F931F93CF93DF936C017B01BB
:100220008B01040F151FEB015E01AE18BF08C0174C
:10023000D10759F06991D601ED91FC910190F081BF
:10024000E02DC6010995892B79F7C501DF91CF9182
:100250001F910F91FF90EF90DF90CF90BF90AF90E4
:100260000895FC01538D448D252F30E0842F90E0BC
:10027000821B930B541710F0CF96089501970895A1
:10028000FC01918D828D981761F0A28DAE0FBF2F6A
:10029000B11D5D968C91928D9F5F9F73928F90E0C0
:1002A00008958FEF9FEF08950F931F930E94F8001A
:1002B0006093A0017093A1018093A2019093A30188
:1002C00088E991E00E94400197FF1DC00E94F8005C
:1002D0000091A0011091A1012091A2013091A301F0
:1002E000601B710B820B930B00919C0110919D017F
:1002F00020919E0130919F0160177107820793073B
:10030000F8F28FEF9FEF1F910F910895FC01918DEF
:10031000828D981731F0828DE80FF11D858D90E068
:1003200008958FEF9FEF0895FC01918D228D892F05
:1003300090E0805C9F4F821B91098F7399270895ED
:1003400088E991E00E94940121E0892B09F420E0E2
:10035000822F089580E090E0892B29F00E94A0016F
:1003600081110C9400000895FC01A48DA80FB92FF1
:10037000B11DA35ABF4F2C91848D90E001968F73CD
:100380009927848FA689B7892C93A089B1898C91EC
:10039000837080648C93938D848D981306C002883B
:1003A000F389E02D80818F7D80830895EF92FF9205
:1003B0000F931F93CF93DF93EC0181E0888F9B8D88
:1003C0008C8D98131AC0E889F989808185FF15C042
:1003D0009FB7F894EE89FF896083E889F989808165
:1003E0008370806480839FBF81E090E0DF91CF9134
:1003F0001F910F91FF90EF900895F62E0B8D10E056
:100400000F5F1F4F0F731127E02E8C8D8E110CC0C4
:100410000FB607FCFACFE889F989808185FFF5CF0F
:10042000CE010E94B401F1CFEB8DEC0FFD2FF11D39
:10043000E35AFF4FF0829FB7F8940B8FEA89FB894C
:1004400080818062CFCFCF93DF93EC01888D8823AA
:10045000B9F0AA89BB89E889F9898C9185FD03C027
:10046000808186FD0DC00FB607FCF7CF8C9185FF0C
:10047000F2CF808185FFEDCFCE010E94B401E9CF9C
:10048000DF91CF9108952F923F924F925F926F929A
:100490007F928F929F92AF92BF92CF92DF92EF9214
:1004A000FF920F931F93CF93DF9300D000D0CDB76F
:1004B000DEB70E94F8004B015C01209100013091F1
:1004C00001013A83298348E751E05C834B8388E646
:1004D000E82E81E0F82E08E511E092E0292E91E067
:1004E000392ED12CC12C89819A818C159D0591F5CD
:1004F000EB81FC811082118212821382FFEFCF1AEE
:10050000DF0A2B813C812C5F3F4F3C832B8334E0FF
:10051000E30EF11C0C5F1F4F44E0240E311C54E02D
:10052000C516D10401F70F900F900F900F90DF9137
:10053000CF911F910F91FF90EF90DF90CF90BF90E0
:10054000AF909F908F907F906F905F904F903F9073
:100550002F900895F10180819181A281B3811816B5
:1005600019061A061B060CF03EC0F8018081918125
:10057000A281B381A5019401281B390B4A0B5B0BA7
:10058000CA01B9010E94340920E030E04AE754E48E
:100590000E94FA0A20E030E040E251E40E9495090E
:1005A000F70120813181428153810E948E0A2B0103
:1005B0003C0120E030E040EF52E40E949B0B181613
:1005C0003CF0EB81FC81408251826282738296CF43
:1005D00080E090E0A0EFB2E4EB81FC818083918326
:1005E000A283B3838BCFEB81FC81108211821282B4
:1005F0001382F7011082118212821382F801808225
:100600009182A282B3827ACFFC0101900020E9F7A7
:100610003197AF01481B590BBC0188E991E00C945C
:1006200004018F929F92AF92BF920F931F93CF932B
:10063000DF93CDB7DEB7A1970FB6F894DEBF0FBE3C
:10064000CDBF19A2423008F44AE08E010F5D1F4F62
:10065000842E912CB12CA12CA50194010E94A50BF4
:10066000E62FB901CA01EA30F4F4E05DD801EE9357
:100670008D01232B242B252B79F790E080E0109718
:1006800019F0CD010E940403A1960FB6F894DEBFC5
:100690000FBECDBFDF91CF911F910F91BF90AF9053
:1006A0009F908F900895E95CE1CFCF92DF92EF9217
:1006B000FF92CF93DF936B017C016DE288E991E0BB
:1006C0000E94D601EC0166277727CB016C197D09C2
:1006D0008E099F094AE00E9411038C0F9D1FDF9134
:1006E000CF91FF90EF90DF90CF9008950F931F93DD
:1006F000CF93DF93EC0188819981009759F02A818B
:100700003B812617370730F081E0DF91CF911F91B1
:100710000F9108958B016F5F7F4F0E94F20C00973D
:1007200059F0998388831B830A832C813D81232B75
:1007300059F7FC011082E8CF80E0E7CFCF93DF9339
:10074000EC0188819981009711F00E94690C19824F
:1007500018821D821C821B821A82DF91CF9108951C
:10076000EF92FF920F931F93CF93DF938C017B0146
:10077000EB0109900020E9F72197C61BD70BBE01BA
:100780000E947603811109C0C801DF91CF911F91AA
:100790000F91FF90EF900C949E03F801D583C483D2
:1007A000B70180819181DF91CF911F910F91FF90CF
:1007B000EF900C94B80DFC0180819181009711F0AD
:1007C0000C94690C08958F929F92AF92BF92CF9232
:1007D000DF92EF92FF920F931F93CF93DF9382E309
:1007E00091E00E940403C2E0D1E06991799189917E
:1007F000999197FF55C00E9455038BE491E00E94A8
:10080000040381E0C231D80781F708E711E0D0E0A6
:10081000C0E0F801C190D190E190F1908F0120E00B
:1008200030E040EF52E4C701B6010E949B0B18165E
:10083000DCF1A7019601C701B6010E94A00B882335
:10084000C9F185E391E00E940403C330D10521F092
:100850008BE491E00E9404032196C430D105C9F6CF
:100860008BE491E00E94040360910001709101010A
:10087000072E000C880B990B97FF92C00E9455031E
:1008800081E491E0DF91CF911F910F91FF90EF9064
:10089000DF90CF90BF90AF909F908F900C94040307
:1008A0004AE00E941103A9CFC12CD12C80EFE82E81
:1008B00082E4F82E46015701E894B7F82FEF3FEF96
:1008C0004FE75FE7C501B4010E94A00B81110DC085
:1008D0002FEF3FEF4FE75FE7C501B4010E942F09FB
:1008E00018161CF489E391E0AECF2FEF3FEF4FE7EE
:1008F0005FE4C701B6010E949B0B18161CF48DE340
:1009000091E0A1CF2FEF3FEF4FE75FECC701B601BA
:100910000E942F0987FDF3CF20E030E0A901C70135
:10092000B6010E942F0987FF09C06DE288E991E0B6
:100930000E94D601F7FAF094F7F8F0942DEC3CEC15
:100940004CE45DE3C701B6010E948E0A4B015C01D5
:100950000E946C0B6B017C010E9434099B01AC016D
:10096000C501B4010E948D0A4B015C014AE0C70138
:10097000B6010E9411036EE288E991E00E94D6015F
:1009800020E030E040E251E4C501B4010E94950945
:100990000E946C0B90E080E04AE00E94110355CF6A
:1009A0004AE00E9411036CCF1F920F920FB60F9274
:1009B00011242F933F938F939F93AF93BF93809175
:1009C000900190919101A0919201B0919301309189
:1009D0008F0123E0230F2D3758F50196A11DB11D7E
:1009E00020938F018093900190939101A0939201A5
:1009F000B09393018091940190919501A0919601FB
:100A0000B09197010196A11DB11D8093940190931F
:100A10009501A0939601B0939701BF91AF919F91DB
:100A20008F913F912F910F900FBE0F901F901895AF
:100A300026E8230F0296A11DB11DD2CF1F920F925F
:100A40000FB60F9211242F933F934F935F936F93A1
:100A50007F938F939F93AF93BF93EF93FF9388E917
:100A600091E00E94B401FF91EF91BF91AF919F91EE
:100A70008F917F916F915F914F913F912F910F9047
:100A80000FBE0F901F9018951F920F920FB60F92E6
:100A900011242F938F939F93EF93FF93E091A801DD
:100AA000F091A9018081E091AE01F091AF0182FD4A
:100AB0001BC090818091B1018F5F8F732091B20133
:100AC000821741F0E091B101F0E0E856FE4F958FBA
:100AD0008093B101FF91EF919F918F912F910F9092
:100AE0000FBE0F901F9018958081F4CFCF93DF93A6
:100AF000CDB7DEB72C970FB6F894DEBF0FBECDBFD3
:100B0000789484B5826084BD84B5816084BD85B5E8
:100B1000826085BD85B5816085BD80916E008160F4
:100B200080936E001092810080918100826080939A
:100B3000810080918100816080938100809180009C
:100B40008160809380008091B10084608093B100C7
:100B50008091B00081608093B00080917A008460C1
:100B600080937A0080917A00826080937A008091ED
:100B70007A00816080937A0080917A008068809307
:100B80007A001092C100E091A801F091A90182E0E1
:100B90008083E091A401F091A5011082E091A6016B
:100BA000F091A7018FEC80831092B001E091AC012D
:100BB000F091AD0186E08083E091AA01F091AB0154
:100BC000808180618083E091AA01F091AB018081F6
:100BD00088608083E091AA01F091AB0180818068F8
:100BE0008083E091AA01F091AB0180818F7D8083A9
:100BF000E3E9F0E02491EFE7F0E084918823C9F085
:100C000090E0880F991FFC01E859FF4F45915491DE
:100C1000FC01EE58FF4FA591B4919FB7F894FA01EB
:100C20003081822F809583238083EC91E22BEC939B
:100C30009FBF0AE211E0F801819191918F019C011F
:100C40003327F901E057FF4F449124583F4FF901F2
:100C50002491222399F030E0220F331FF901E85943
:100C6000FF4FA591B491F901EE58FF4F25913491B2
:100C70002FB7F894EC91E42BEC932FBF60E00E9427
:100C80008700F1E002331F07B1F60E94F800E8E5A3
:100C9000F1E028E631E0A8E6B1E061937193819339
:100CA00091931D921D921D921D922E173F07A9F739
:100CB00084E491E00E94040381E491E00E94040333
:100CC0000E94D3004B015C01F8EBCF2EFBE0DF2E3E
:100CD000E12CF12C0E94D300681979098A099B093B
:100CE000683E734081059105A8F321E0C21AD1083E
:100CF000E108F10888EE880E83E0981EA11CB11C63
:100D0000C114D104E104F10429F70E94E30381E056
:100D100080938C0172E1A72E71E0B72E22242A94D1
:100D2000322C0E94430280918E01811117C0809164
:100D30008D01811113C080918C0181110FC0E2E0FF
:100D4000F1E081919191A191B191181619061A06BD
:100D50001B060CF407C2AE16BF0699F788E991E0AE
:100D60000E949401892B09F426C118861F821A86D5
:100D700019861C861B8663E471E0CE0107960E94EB
:100D8000B0030E94540197FD1EC08A309105D9F02E
:100D900089831A820B851C850F5F1F4FB801CE0116
:100DA00007960E947603882361F32F8138858B850F
:100DB0009C85BE016F5F7F4F820F931F0E94B80D0D
:100DC0001C870B87DECFCF80D884C114D10439F0C3
:100DD0000B851C8576010115110509F080C11A8269
:100DE00019821C821B821E821D826AE471E0CE0180
:100DF00001960E94B0034D815E818B859C8584178E
:100E0000950770F08F819885009751F069817A81FC
:100E10006115710529F00E94BF0D11E0892B09F0C1
:100E200010E0CE0101960E94DB03112309F4BFC03C
:100E3000CB84DC8452E0E52EF12CF2E0CF16D10415
:100E400020F4760162E0C62ED12C1A8219821C820F
:100E50001B821E821D8263E471E0CE0101960E9416
:100E6000B0030B851C85E016F10650F5C016D106BF
:100E700008F48601EF81F885E00FF11F9080108261
:100E80008F819885E80EF91EE114F10479F0F701DD
:100E900001900020E9F731976F01CE18DF08B60105
:100EA000CE0101960E94760381114FC1CE010196B9
:100EB0000E949E038F819885080F191FF801908268
:100EC00089819A81C12CD12C7601009719F00E945A
:100ED000EA086B01CE0101960E94DB03F4E0CF1615
:100EE000D10408F064C08601000F111F000F111F0C
:100EF000F801EE5FFE4F80819181A281B3811816C7
:100F000019061A061B060CF052C0D0920101C092BD
:100F1000000121E020938E0110928D0110928C012E
:100F20000E94F8002B013C01C80188589E4F4C01DB
:100F300020E030E040E05FE3FC016081718182816C
:100F400093810E949509F801E859FE4F60837183EF
:100F500082839383F801E85AFE4F40825182628275
:100F60007382F401608371838283938360E089E0FC
:100F70000E94870060E08AE00E94870060E08BE0CA
:100F80000E94870060E08CE00E948700F601EE0F6F
:100F9000FF1FE65DFE4F61E080810E948700409266
:100FA00088015092890160928A0170928B01CE0172
:100FB00007960E94DB0380918E01882309F481C08B
:100FC0000E94F800009188011091890120918A0106
:100FD00030918B01601B710B820B930B643F71404E
:100FE0008105910508F46DC0809100019091010187
:100FF000880F991F880F991FFC01EE5FFE4F4081FB
:101000005181628173818A01403151056105710509
:1010100024F00FE010E020E030E0012E000C220B65
:10102000330B401B510B620B730B8E5F9E4FFC0109
:1010300077FD93C0408351836283738310928E0146
:10104000F1E0F0938C01E2E0F1E081919191A191C6
:10105000B191181619061A061B060CF489C0AE16B3
:10106000BF0699F760E089E00E94870060E08AE0AF
:101070000E94870060E08BE00E94870060E08CE0C7
:101080000E948700309201012092000110928C0191
:10109000E8E7F1E0A8E6B1E0119211921192119205
:1010A0001D921D921D921D9288E891E08E179F0758
:1010B00099F78DE491E00E94040381E491E00E949D
:1010C0000403E0E0F0E0EF2B09F42BCE0E94A00136
:1010D000882309F426CE0E94000023CE7401470124
:1010E000FFEF8F1A9F0AF7018081082E000C990BE1
:1010F0000E942609892B91F7015011090C0D1D1D25
:10110000F8018081082E000C990B0E942609892B7A
:1011100031F00E151F0518F001501109F1CF0F5FC6
:101120001F4FA8014E195F095C874B87CE14DF045F
:1011300020F4B701C6010E94AF0DEF81F8858B85C1
:101140009C85E80FF91F10824ACEDE82CD82B7015E
:1011500089819A810E94B80DADCE108211821282CF
:1011600013826CCF0E94E303F1E0F0938C01F6CD83
:101170000E9443020E94E303A4CFE8E9F1E0138256
:10118000128288EE93E0A0E0B0E084839583A6838A
:10119000B7838CE191E09183808385EC90E0958723
:1011A000848784EC90E09787868780EC90E0918B31
:1011B000808B81EC90E0938B828B82EC90E0958B1E
:1011C000848B86EC90E0978B868B118E128E138E1B
:1011D000148E08951F93FC0199278827BC01E89479
:1011E00011911032E9F3193010F01E30C8F31B32A0
:1011F00051F01D3249F4689406C00E941109610F34
:10120000711D811D911D119110531A30B0F33EF4E0
:1012100090958095709561957F4F8F4F9F4F1F914F
:101220000895592F482F372F262F660F771F881FB5
:10123000991F660F771F881F991F620F731F841FE6
:10124000951F660F771F881F991F089591110C94A1
:10125000020A803219F089508550C8F708950E941B
:10126000710908F481E00895E89409C097FB3EF401
:1012700090958095709561957F4F8F4F9F4F9923E3
:10128000A9F0F92F96E9BB279395F6958795779561
:101290006795B795F111F8CFFAF4BB0F11F460FF21
:1012A0001BC06F5F7F4F8F4F9F4F16C0882311F079
:1012B00096E911C0772321F09EE8872F762F05C08D
:1012C000662371F096E8862F70E060E02AF09A9528
:1012D000660F771F881FDAF7880F9695879597F91D
:1012E0000895990F0008550FAA0BE0E8FEEF1616B7
:1012F0001706E807F907C0F012161306E407F5070A
:1013000098F0621B730B840B950B39F40A2661F07D
:10131000232B242B252B21F408950A2609F4A14020
:10132000A6958FEF811D811D08950E94A8090C9438
:101330001C0A0E940E0A38F00E94150A20F095231C
:1013400011F00C94050A0C940B0A11240C94500A09
:101350000E942D0A70F3959FC1F3950F50E0551F21
:10136000629FF001729FBB27F00DB11D639FAA27FA
:10137000F00DB11DAA1F649F6627B00DA11D661F49
:10138000829F2227B00DA11D621F739FB00DA11D6A
:10139000621F839FA00D611D221F749F3327A00D24
:1013A000611D231F849F600D211D822F762F6A2FC0
:1013B00011249F5750409AF0F1F088234AF0EE0F25
:1013C000FF1FBB1F661F771F881F91505040A9F752
:1013D0009E3F510580F00C94050A0C94500A5F3F23
:1013E000E4F3983ED4F3869577956795B795F7958E
:1013F000E7959F5FC1F7FE2B880F911D9695879506
:1014000097F9089599278827089597F99F6780E8A5
:1014100070E060E008959FEF80EC089500240A9446
:101420001616170618060906089500240A941216BF
:101430001306140605060895092E0394000C11F4F2
:10144000882352F0BB0F40F4BF2B11F460FF04C09F
:101450006F5F7F4F8F4F9F4F089557FD9058440FF8
:10146000551F59F05F3F71F04795880F97FB991F03
:1014700061F09F3F79F087950895121613061406C0
:10148000551FF2CF4695F1DF08C01616170618064D
:10149000991FF1CF86957105610508940895E89428
:1014A000BB2766277727CB0197F908952F923F92A4
:1014B0004F925F926F927F928F929F92AF92BF9264
:1014C000CF92DF92EF92FF920F931F93CF93DF9310
:1014D000CDB7DEB7CA1BDB0B0FB6F894DEBF0FBE6D
:1014E000CDBF09942A88398848885F846E847D84BA
:1014F0008C849B84AA84B984C884DF80EE80FD80BC
:101500000C811B81AA81B981CE0FD11D0FB6F89431
:10151000DEBF0FBECDBFED0108955058BB27AA27EF
:101520000E94A50A0C941C0A0E940E0A38F00E9420
:10153000150A20F039F49F3F19F426F40C940B0A95
:101540000EF4E095E7FB0C94050AE92F0E942D0AA2
:1015500058F3BA17620773078407950720F079F4E8
:10156000A6F50C944F0A0EF4E0950B2EBA2FA02D81
:101570000B01B90190010C01CA01A0011124FF2740
:10158000591B99F0593F50F4503E68F11A16F0403B
:10159000A22F232F342F4427585FF3CF469537953A
:1015A0002795A795F0405395C9F77EF41F16BA0BFF
:1015B000620B730B840BBAF09150A1F0FF0FBB1FAD
:1015C000661F771F881FC2F70EC0BA0F621F731FF6
:1015D000841F48F4879577956795B795F7959E3F53
:1015E00008F0B0CF9395880F08F09927EE0F9795E4
:1015F000879508950E940E0B0C941C0A0E94150AF0
:1016000058F00E940E0A40F029F45F3F29F00C9434
:10161000050A51110C94500A0C940B0A0E942D0AD1
:1016200068F39923B1F3552391F3951B550BBB2711
:10163000AA2762177307840738F09F5F5F4F220F56
:10164000331F441FAA1FA9F335D00E2E3AF0E0E84D
:1016500032D091505040E695001CCAF72BD0FE2F97
:1016600029D0660F771F881FBB1F2617370748072B
:10167000AB07B0E809F0BB0B802DBF01FF279358E3
:101680005F4F3AF09E3F510578F00C94050A0C9498
:10169000500A5F3FE4F3983ED4F3869577956795BB
:1016A000B795F7959F5FC9F7880F911D9695879518
:1016B00097F90895E1E0660F771F881FBB1F621737
:1016C00073078407BA0720F0621B730B840BBA0BF5
:1016D000EE1F88F7E09508950E94350A88F09F571D
:1016E00098F0B92F9927B751B0F0E1F0660F771F46
:1016F000881F991F1AF0BA95C9F714C0B13091F03C
:101700000E944F0AB1E008950C944F0A672F782F7A
:101710008827B85F39F0B93FCCF386957795679500
:10172000B395D9F73EF490958095709561957F4F6C
:101730008F4F9F4F08950E94710908F48FEF08950D
:101740000E947109880B990B0895A1E21A2EAA1B19
:10175000BB1BFD010DC0AA1FBB1FEE1FFF1FA21761
:10176000B307E407F50720F0A21BB30BE40BF50B5E
:10177000661F771F881F991F1A9469F760957095E7
:10178000809590959B01AC01BD01CF010895EE0FAE
:10179000FF1F0590F491E02D09940F931F93CF93B1
:1017A000DF938230910510F482E090E0E0913702FF
:1017B000F091380230E020E0B0E0A0E0309799F4FA
:1017C0002115310509F44AC0281B390B2430310595
:1017D000D8F58A819B816115710589F1FB0193839D
:1017E0008283FE0111C0408151810281138148171B
:1017F0005907E0F04817590799F4109761F01296CD
:101800000C93129713961C933296CF01DF91CF91D0
:101810001F910F9108950093370210933802F4CF6F
:101820002115310551F04217530738F0A901DB01AA
:101830009A01BD01DF01F801C1CFEF01F9CF90930B
:10184000380280933702CDCFFE01E20FF31F819360
:1018500091932250310939832883D7CF20913502C3
:1018600030913602232B41F420911401309115015F
:1018700030933602209335022091120130911301EA
:101880002115310541F42DB73EB740911601509115
:101890001701241B350BE0913502F0913602E21757
:1018A000F307A0F42E1B3F0B2817390778F0AC0183
:1018B0004E5F5F4F2417350748F04E0F5F1F509360
:1018C000360240933502819391939FCFF0E0E0E0A0
:1018D0009CCFCF93DF930097E9F0FC0132971382FE
:1018E0001282A0913702B0913802ED0130E020E081
:1018F0001097A1F420813181820F931F209135022E
:10190000309136022817390709F061C0F09336028A
:10191000E0933502DF91CF910895EA01CE17DF07FA
:10192000E8F54A815B819E0141155105B1F7E90156
:10193000FB83EA8349915991C40FD51FEC17FD072A
:1019400061F4808191810296840F951FE90199834A
:101950008883828193819B838A83F0E0E0E0129602
:101960008D919C9113970097B9F52D913C9111970A
:10197000CD010296820F931F2091350230913602DD
:101980002817390739F6309751F51092380210921E
:101990003702B0933602A0933502BCCFD383C28303
:1019A00040815181840F951FC817D90761F44E5F9C
:1019B0005F4F88819981480F591F518340838A81E5
:1019C0009B81938382832115310509F0B0CFF09379
:1019D0003802E09337029ECFFD01DC01C0CF1382B5
:1019E0001282D7CFB0E0A0E0E8EFFCE00C94580AF8
:1019F0008C01009751F4CB010E94CD0B8C01C801E2
:101A0000CDB7DEB7E0E10C94740AFC01E60FF71FD6
:101A10009C0122503109E217F30708F49DC0D90157
:101A2000CD91DC911197C617D70798F0C530D10535
:101A300030F3CE0104978617970708F3C61BD70B20
:101A40002297C193D1936D937C93CF010E94690C2F
:101A5000D6CF5B01AC1ABD0A4C018C0E9D1EA09125
:101A60003702B0913802512C412CF12CE12C109707
:101A700031F580913502909136028815990509F06B
:101A80005CC04616570608F058C08091120190912C
:101A90001301009741F48DB79EB740911601509104
:101AA0001701841B950BE817F90708F055C0F09350
:101AB0003602E0933502F90171836083A0CF8D91E6
:101AC0009C91119712966C90129713967C90139795
:101AD000A815B90559F56C0142E0C40ED11CCA1411
:101AE000DB0420F1AC014A195B09DA011296159763
:101AF00080F06282738251834083D9016D937C931D
:101B0000E114F10471F0D7011396FC93EE93129750
:101B100076CF22968C0F9D1FF90191838083F3016C
:101B2000EFCFF0933802E093370269CF4816590699
:101B300008F42C017D01D3019ACFCB010E94CD0B7B
:101B40007C01009749F0AE01B8010E94AF0DC801B9
:101B50000E94690C870153CF10E000E050CFFB01D9
:101B6000DC0102C001900D9241505040D8F7089519
:101B7000FB01DC0101900D920020E1F70895FB01CB
:101B8000DC014150504030F08D910190801919F4E2
:101B90000020B9F7881B990B0895F894FFCFFFFF39
:101BA00096000000960000009600000096000000DD
:101BB00000003902800000000000D601040131015C
:101BC000230294014001860109000A000B000C0069
:101BD000532C006E616E00696E66006F7666000DB4
:101BE0000A00524541445900442C00414C4C5F4589
:061BF0004D5054590000A5
:107E0000112484B714BE81FFF0D085E080938100F7
:107E100082E08093C00088E18093C10086E0809377
:107E2000C20080E18093C4008EE0C9D0259A86E02C
:107E300020E33CEF91E0309385002093840096BBD3
:107E4000B09BFECF1D9AA8958150A9F7CC24DD24C4
:107E500088248394B5E0AB2EA1E19A2EF3E0BF2EE7
:107E6000A2D0813461F49FD0082FAFD0023811F036
:107E7000013811F484E001C083E08DD089C08234E0
:107E800011F484E103C0853419F485E0A6D080C0E4
:107E9000853579F488D0E82EFF2485D0082F10E0AE
:107EA000102F00270E291F29000F111F8ED06801E7
:107EB0006FC0863521F484E090D080E0DECF843638
:107EC00009F040C070D06FD0082F6DD080E0C81688
:107ED00080E7D80618F4F601B7BEE895C0E0D1E017
:107EE00062D089930C17E1F7F0E0CF16F0E7DF06D8
:107EF00018F0F601B7BEE89568D007B600FCFDCFD4
:107F0000A601A0E0B1E02C9130E011968C91119780
:107F100090E0982F8827822B932B1296FA010C0160
:107F200087BEE89511244E5F5F4FF1E0A038BF0790
:107F300051F7F601A7BEE89507B600FCFDCF97BE46
:107F4000E89526C08437B1F42ED02DD0F82E2BD052
:107F50003CD0F601EF2C8F010F5F1F4F84911BD097
:107F6000EA94F801C1F70894C11CD11CFA94CF0C13
:107F7000D11C0EC0853739F428D08EE10CD085E9AC
:107F80000AD08FE07ACF813511F488E018D01DD067
:107F900080E101D065CF982F8091C00085FFFCCF94
:107FA0009093C60008958091C00087FFFCCF809118
:107FB000C00084FD01C0A8958091C6000895E0E648
:107FC000F0E098E1908380830895EDDF803219F02E
:107FD00088E0F5DFFFCF84E1DECF1F93182FE3DFCA
:107FE0001150E9F7F2DF1F91089580E0E8DFEE27F6
:047FF000FF270994CA
:027FFE00040479
:00000001FF
