:100000000C9462000C948A000C948A000C948A0070
:100010000C948A000C948A000C948A000C948A0038
:100020000C948A000C948A000C948A000C948A0028
:100030000C948A000C948A000C948A000C948A0018
:100040000C94D9050C948A000C9449060C94230650
:100050000C948A000C948A000C948A000C948A00F8
:100060000C948A000C948A000000000024002700F1
:100070002A0000000000250028002B0000000000DE
:1000800023002600290004040404040404040202DA
:100090000202020203030303030301020408102007
:1000A0004080010204081020010204081020000012
:1000B0000008000201000003040700000000000027
:1000C00000004D0911241FBECFEFD8E0DEBFCDBF29
:1000D00011E0A0E0B1E0ECECF3E102C005900D927C
:1000E000A23AB107D9F722E0A2EAB1E001C01D921D
:1000F000A93AB207E1F710E0C2E6D0E004C02197C8
:10010000FE010E94CF09C136D107C9F70E947B06C4
:100110000C94E4090C940000833081F028F48130C1
:1001200099F08230A9F008958730A9F08830C9F09D
:100130008430B1F4809180008F7D03C08091800075
:100140008F7780938000089584B58F7784BD08955C
:1001500084B58F7DFBCF8091B0008F778093B00006
:1001600008958091B0008F7DF9CFCF93DF93282F32
:1001700030E0F901E255FF4F8491F901E656FF4F57
:10018000D491F901EA57FF4FC491CC23A1F081111A
:100190000E948C00EC2FF0E0EE0FFF1FE458FF4FA1
:1001A000A591B491EC91ED2381E090E009F480E019
:1001B000DF91CF91089580E090E0FACF1F93CF9325
:1001C000DF93282F30E0F901E255FF4F8491F901C8
:1001D000E656FF4FD491F901EA57FF4FC491CC2363
:1001E000A9F0162F81110E948C00EC2FF0E0EE0F89
:1001F000FF1FEE58FF4FA591B4918FB7F894EC9183
:10020000111108C0D095DE23DC938FBFDF91CF9111
:100210001F910895DE2BF8CFCF93DF9390E0FC0180
:10022000E656FF4F24918A579F4FFC018491882303
:10023000D1F090E0880F991FFC01E859FF4FA5917C
:10024000B491FC01EE58FF4FC591D49161110EC0DD
:100250009FB7F8948C91E22FE0958E238C932881A0
:10026000E223E8839FBFDF91CF9108958FB7F89481
:10027000EC91E22BEC938FBFF6CF2FB7F8946091FF
:1002800008027091090280910A0290910B022FBF1F
:100290000895AF92BF92CF92DF92EF92FF920F93A9
:1002A0001F93CF93DF936C017B018B01040F151F0C
:1002B000EB015E01AE18BF08C017D10759F0699174
:1002C000D601ED91FC910190F081E02DC6010995D8
:1002D000892B79F7C501DF91CF911F910F91FF9085
:1002E000EF90DF90CF90BF90AF900895FC01538DB9
:1002F000448D252F30E0842F90E0821B930B541700
:1003000010F0CF96089501970895FC01918D828D8C
:10031000981761F0A28DAE0FBF2FB11D5D968C9125
:10032000928D9F5F9F73928F90E008958FEF9FEF64
:100330000895FC01918D828D981731F0828DE80F20
:10034000F11D858D90E008958FEF9FEF0895FC01DA
:10035000918D228D892F90E0805C9F4F821B9109A7
:100360008F73992708958CE092E00E94A70121E005
:10037000892B09F420E0822F089580E090E0892BFA
:1003800029F00E94B30181110C9400000895FC0132
:10039000A48DA80FB92FB11DA35ABF4F2C91848DE6
:1003A00090E001968F739927848FA689B7892C9343
:1003B000A089B1898C91837080648C93938D848D96
:1003C000981306C00288F389E02D80818F7D808399
:1003D0000895EF92FF920F931F93CF93DF93EC0159
:1003E00081E0888F9B8D8C8D98131AC0E889F989DC
:1003F000808185FF15C09FB7F894EE89FF896083DF
:10040000E889F98980818370806480839FBF81E05F
:1004100090E0DF91CF911F910F91FF90EF900895A1
:10042000F62E0B8D10E00F5F1F4F0F731127E02E7C
:100430008C8D8E110CC00FB607FCFACFE889F989B4
:10044000808185FFF5CFCE010E94C701F1CFEB8DF2
:10045000EC0FFD2FF11DE35AFF4FF0829FB7F89488
:100460000B8FEA89FB8980818062CFCFCF93DF93A6
:10047000EC01888D8823B9F0AA89BB89E889F989BC
:100480008C9185FD03C0808186FD0DC00FB607FCF1
:10049000F7CF8C9185FFF2CF808185FFEDCFCE0124
:1004A0000E94C701E9CFDF91CF910895CF93DF93E9
:1004B000C0911401D0911501CF3FDC0709F443C06E
:1004C000FE01EE0FFF1FE65CFE4F61E080810E949F
:1004D000DE000E943D016093AD017093AE018093F8
:1004E000AF019093B001CC0FDD1FCC0FDD1FC85EB4
:1004F000DE4F288139814A815B81A8E7B0E00E9404
:10050000B009DC01CB018854944FAF4FBF4F883BFB
:100510002BE09207A105B10520F488EB9BE0A0E059
:10052000B0E0813E2EE29207A105B10520F080EEF9
:100530009EE2A0E0B0E08093A9019093AA01A0936D
:10054000AB01B093AC01DF91CF91089597FD07C047
:100550000196837099279093A4018093A301089535
:10056000CF92DF92EF92FF920F931F93CF93DF937F
:10057000EC01A8E1B1E0E3EBF1E090E080E04D9127
:100580005D916D917D91141615061606170654F4AB
:10059000408151816281738143305105610571054C
:1005A0000CF058C0019634968430910541F730E044
:1005B00020E0E4E0F0E0C9018C0F9D1FBF010E9424
:1005C0007A09AC01440F551F440F551FDA01A85E8C
:1005D000BE4FCD90DD90ED90FC901C141D041E04C8
:1005E0001F0494F463E0C616D104E104F10494F509
:1005F0004D545E4FDA014D915D916D917C91433088
:1006000051056105710534F52F5F3F4F24303105E9
:1006100091F630E020E004E010E0C9018C0F9D1F4E
:10062000B8010E947A09FC01EE0FFF1FEE0FFF1FB9
:10063000E85EFE4F40815181628173811416150678
:10064000160617063CF02F5F3F4F2430310529F77F
:100650008FEF9FEFDF91CF911F910F91FF90EF9060
:10066000DF90CF9008950F931F939C01220F331FAB
:10067000220F331FF901E85EFE4F80819181A28134
:10068000B381181619061A061B0684F42D543E4F22
:10069000F9010081118122813381BC01CD01600FFC
:1006A000711F821F931F1F910F91089560E070E0EA
:1006B000CB01F9CF60E089E00E94DE0060E08AE0D3
:1006C0000E94DE0060E08BE00E94DE0060E08CE0D3
:1006D0000C94DE00CF92DF92EF92FF920F931F9364
:1006E000CF93DF936B018A0179010E94B500EC0181
:1006F000F601808191818C179D0749F0D183C083D9
:100700000E943D01F70160837183828393830E947D
:100710003D01F701C080D180E280F3806C197D0932
:100720008E099F09603571058105910510F480E0FF
:100730000DC0F801808191818C179D07C1F3D18391
:10074000C083892BA1F781E0219789F7DF91CF91B1
:100750001F910F91FF90EF90DF90CF900895FC01D3
:1007600001900020E9F73197AF01481B590BBC01FC
:100770008CE092E00C9449010C94AF038F929F920D
:10078000AF92BF92CF92DF92EF92FF920F931F939F
:10079000CF93DF93CDB7DEB7A1970FB6F894DEBF46
:1007A0000FBECDBF6B017C01F7FE41C06DE28CE056
:1007B00092E00E94E9018C0122273327A9012C191C
:1007C0003D094E095F0919A2CE0181967C019AE08C
:1007D000892E912CA12CB12CCA01B901A50194013B
:1007E0000E948E09605DF70162937F01211531053A
:1007F0004105510589F790E080E0309719F0CF016D
:100800000E94AF03800F911FA1960FB6F894DEBF30
:100810000FBECDBFDF91CF911F910F91FF90EF9051
:10082000DF90CF90BF90AF909F908F900895AC01D4
:100830009B0119A28E010F5D1F4F8AE0C82ED12C9B
:10084000E12CF12CCA01B901A70196010E948E0981
:10085000605DF80162938F01211531054105510555
:1008600089F790E080E0309779F2CF010E94AF03E2
:10087000CBCF82E591E00E94AF0385E591E00E9435
:10088000BC03609118017091190180911A01909137
:100890001B010E94BE038BE591E00E94BC0390E027
:1008A00080E00E9433030E94BE038FE591E00E9426
:1008B000BC036091B3017091B4018091B501909136
:1008C000B6010E94BE0383E691E00E94BC036091E2
:1008D0001C0170911D0180911E0190911F010E94C9
:1008E000BE038BE591E00E94BC0381E090E00E9492
:1008F00033030E94BE038FE591E00E94BC03609128
:10090000B7017091B8018091B9019091BA010E942C
:10091000BE038CE691E00E94BC03609120017091BF
:10092000210180912201909123010E94BE038BE559
:1009300091E00E94BC0382E090E00E9433030E9499
:10094000BE038FE591E00E94BC036091BB017091F2
:10095000BC018091BD019091BE010E94BE0385E75C
:1009600091E00E94BC036091240170912501809167
:100970002601909127010E94BE038BE591E00E9421
:10098000BC0383E090E00E9433030E94BE038FE526
:1009900091E00E94BC036091BF017091C001809101
:1009A000C1019091C2010E94BE038EE791E00E94B6
:1009B000BC038091B101882389F083E891E00E9413
:1009C000BC0360911601709117016F5F7F4F072E76
:1009D000000C880B990B0E94BE030AC08091140181
:1009E000909115010196C1F48CE891E00E94BC033E
:1009F00089E991E00E94BC036091A3017091A40178
:100A00006F5F7F4F072E000C880B990B0E94BE036F
:100A100082E591E00C94AF0381E991E00E94BC0370
:100A20006091140170911501D0CFEF92FF920F9356
:100A30001F93CF93DF93E8E1F1E084E0E82E81E0BB
:100A4000F82EC701DF010D911D912D913D91EC0113
:100A50004991599169917991CE010417150726079B
:100A6000370759F4D1E0A832BD0769F7DF91CF917C
:100A70001F910F91FF90EF90089581919191A19115
:100A8000B191E70189939993A993B9937E01D1E03C
:100A9000E832FD0791F7DF91CF911F910F91FF9001
:100AA000EF900C9439049091B1018091A201409192
:100AB0001401509115012091020130910301892701
:100AC0004217530709F081E0209116013091170178
:100AD00060910001709101012617370711F48823F6
:100AE00061F09093A201509303014093020130936F
:100AF0000101209300010C9439040895CF93DF93F2
:100B0000EC01909315018093140181E08093B20170
:100B10001092B1018FEF9FEF909317018093160110
:100B20000E943D016093AD017093AE018093AF01CF
:100B30009093B001FE01EE0FFF1FEE0FFF1FE85E66
:100B4000FE4F2081318142815381A8E7B0E00E94AD
:100B5000B009DC01CB018854944FAF4FBF4F883BA5
:100B60002BE09207A105B10520F488EB9BE0A0E003
:100B7000B0E0813E2EE29207A105B10520F080EEA3
:100B80009EE2A0E0B0E08093A9019093AA01A09317
:100B9000AB01B093AC010E945A03CC0FDD1FC65CC1
:100BA000DE4F61E088810E94DE00DF91CF910C94DE
:100BB00053051F920F920FB60F9211242F933F935C
:100BC0008F939F93AF93BF938091080290910902F6
:100BD000A0910A02B0910B023091070223E0230F8B
:100BE0002D3758F50196A11DB11D20930702809362
:100BF000080290930902A0930A02B0930B0280911D
:100C0000030290910402A0910502B09106020196A0
:100C1000A11DB11D8093030290930402A0930502CD
:100C2000B0930602BF91AF919F918F913F912F9109
:100C30000F900FBE0F901F90189526E8230F029675
:100C4000A11DB11DD2CF1F920F920FB60F9211248A
:100C50002F933F934F935F936F937F938F939F93C4
:100C6000AF93BF93EF93FF938CE092E00E94C70194
:100C7000FF91EF91BF91AF919F918F917F916F9174
:100C80005F914F913F912F910F900FBE0F901F904A
:100C900018951F920F920FB60F9211242F938F93D6
:100CA0009F93EF93FF93E0911C02F0911D028081CE
:100CB000E0912202F091230282FD1BC0908180917D
:100CC00025028F5F8F7320912602821741F0E091F9
:100CD0002502F0E0E45FFD4F958F80932502FF91A0
:100CE000EF919F918F912F910F900FBE0F901F90BA
:100CF00018958081F4CFCF93DF9300D000D000D03F
:100D0000CDB7DEB7789484B5826084BD84B5816048
:100D100084BD85B5826085BD85B5816085BD8091C6
:100D20006E00816080936E0010928100809181003E
:100D30008260809381008091810081608093810036
:100D4000809180008160809380008091B1008460F8
:100D50008093B1008091B00081608093B000809159
:100D60007A00846080937A0080917A008260809318
:100D70007A0080917A00816080937A0080917A0075
:100D8000806880937A001092C100E0911C02F0917B
:100D90001D0282E08083E0911802F0911902108216
:100DA000E0911A02F0911B028FEC808310922402D2
:100DB000E0912002F091210286E08083E0911E0202
:100DC000F0911F02808180618083E0911E02F0918A
:100DD0001F02808188608083E0911E02F0911F02D3
:100DE000808180688083E0911E02F0911F028081E3
:100DF0008F7D80837AE3E72E71E0F72E24E031E0E7
:100E00003C832B8388E191E09A838983EBEC6E2EFF
:100E1000E1E07E2EFBEEAF2EF1E0BF2EA3EC8A2E9A
:100E2000A1E09A2E03EE11E0B2E4CB2EB1E0DB2E6E
:100E3000EAE4F1E0FE83ED83ED81FE8140803296AD
:100E4000FE83ED8360E0842D0E940C01F60150804A
:100E5000F2E0CF0ED11C60E0852D0E940C01F7015D
:100E60003080F2E0EF0EF11C61E0832D0E940C0156
:100E700060E0832D0E94DE00842D0E94B500F80101
:100E8000819391938F01852D0E94B500F401819388
:100E900091934F01F801329720813181F50121931F
:100EA00031935F01F301819391933F01E981FA81CD
:100EB00081919191A191B191FA83E983EB81FC81B8
:100EC00081939193A193B193FC83EB832D813E8118
:100ED0002255314009F0B0CF0E94390466246A944B
:100EE000762CE8E1F1E0FC83EB839BECE92E91E0CA
:100EF000F92E23ECC22E21E0D22E22E431E03A83F7
:100F000029833BEEA32E31E0B32E43EE842E41E045
:100F1000942E5AE4252E51E0352E10E000E0512C9D
:100F200098012D503E4FA501B401F101819191919D
:100F30001F010E946A03882379F0EB81FC814081C4
:100F40005181628173814F5F5F4F6F4F7F4F40834D
:100F5000518362837383582E98012D523E4FA7010F
:100F6000B601E981FA8181919191FA83E9830E9426
:100F70006A03882329F1EB81FC81408151816281E0
:100F8000738114161506160617064CF441505109C4
:100F9000610971094083518362837383582EEB8109
:100FA000FC8180819181A281B381892B8A2B8B2B3B
:100FB00039F4F801ED54FE4F10821182128213822F
:100FC000F2E08F0E911C22E0A20EB11C32E0C30EA3
:100FD000D11C82E0E80EF11CEB81FC813496FC838D
:100FE000EB830C5F1F4F0031110509F099CF5110B1
:100FF0000E9415058091B201811121C08091B1013B
:1010000081111DC08091A3019091A4010E94B002A2
:101010009A838983019609F067C00E945A03298147
:101020003A8130931501209314011092B20110926D
:10103000B10130931701209316010E94530580914E
:10104000B201882309F4ABC00E943D010091AD01BB
:101050001091AE012091AF013091B001601B710B76
:10106000820B930B0091A9011091AA012091AB0171
:101070003091AC01601771078207930708F48FC0A5
:1010800080911401909115019A8389838F3F98076D
:1010900009F485C08C01000F111F000F111FF8010A
:1010A000E85EFE4F80819181A281B38118161906F6
:1010B0001A061B064CF40A97A109B109B7FD1DC019
:1010C00080839183A283B383E3EBF1E0A8E1B1E0F5
:1010D00090E080E029813A812817390799F410823D
:1010E00011821282138224C089819A810E94A602F1
:1010F00089819A810E947E05A2CF1082118212827C
:101100001382E2CF4D915D916D917C9113971416EE
:101110001506160617061CF74081518162817381FE
:101120004F5F5F4F6F4F7F4F408351836283738365
:101130000196349614968430910561F60E94150547
:10114000F801E85EFE4FC080D180E280F3801C147D
:101150001D041E041F040CF04CC03BE0C316D10458
:10116000E104F1045CF0A8E7B0E0A70196010E9459
:10117000B009613D774081059105D8F529813A8113
:10118000309315012093140131E03093B201109295
:10119000B10170921701609216010E94560280916F
:1011A000B1018823C9F00E943D010091A501109171
:1011B000A6012091A7013091A801601B710B820B41
:1011C000930B603D77408105910530F080911601C9
:1011D000909117010E947E0580E090E0892B09F430
:1011E00080CE0E94B301882309F47BCE0E940000C8
:1011F00078CE8091A3019091A4010E94B0028C014D
:101200000F3F100789F40E945A03109315010093B1
:1012100014011092B2011092B101109317010093C2
:1012200016010E945305BBCFE981FA81E017F1074F
:10123000B9F41C141D041E041F0494F4F09315014A
:10124000E0931401F1E0F093B2011092B1017092B9
:1012500017016092160189819A810E94A6029DCF92
:10126000C8010E94A6020E945A0370921501609262
:1012700014011092B20121E02093B10110931701E3
:10128000009316010E943D016093A5017093A60191
:101290008093A7019093A801C4CFECE0F2E0138201
:1012A000128288EE93E0A0E0B0E084839583A68369
:1012B000B7838CE291E09183808385EC90E0958701
:1012C000848784EC90E09787868780EC90E0918B10
:1012D000808B81EC90E0938B828B82EC90E0958BFD
:1012E000848B86EC90E0978B868B118E128E138EFA
:1012F000148E089597FB072E16F4009407D077FDFF
:1013000009D00E94BB0907FC05D03EF49095819559
:101310009F4F0895709561957F4F0895A1E21A2E11
:10132000AA1BBB1BFD010DC0AA1FBB1FEE1FFF1F89
:10133000A217B307E407F50720F0A21BB30BE40BD9
:10134000F50B661F771F881F991F1A9469F7609520
:101350007095809590959B01AC01BD01CF010895DA
:101360000E94D509A59F900DB49F900DA49F800D5C
:10137000911D11240895AA1BBB1B51E107C0AA1F90
:10138000BB1FA617B70710F0A61BB70B881F991F26
:101390005A95A9F780959095BC01CD010895EE0F5F
:1013A000FF1F0590F491E02D0994A29FB001B39F17
:1013B000C001A39F700D811D1124911DB29F700D5E
:0C13C000811D1124911D0895F894FFCFA9
:1013CC009DFF9DFFFFFFFFFFFFFFFFFFFFFFFFFFE5
:1013DC00FFFFFFFFFFFFFFFF6400000000000000A5
:1013EC00030000000B00000000000000E9014901AF
:1013FC0076013602A7018501990109000A000B004C
:10140C000C000300050007000D000200040006009C
:10141C0008000D0A00533120433D0020503D0020B0
:10142C00573D00207C20533220433D00207C20532C
:10143C003320433D00207C20533420433D00207C4E
:10144C007C20005452414E532D3E53004E4F4E457E
:10145C0000475245454E3D5300207C2052523D538F
:02146C0000007E
:00000001FF
