:020000040000FA
:100000000C945D000C9485000C9485000C94850084
:100010000C9485000C9485000C9485000C9485004C
:100020000C9485000C9485000C9485000C9485003C
:100030000C9485000C9485000C9485000C9485002C
:100040000C94E4040C9485000C9454050C942E0537
:100050000C9485000C9485000C9485000C9485000C
:100060000C9485000C9485000000000024002700FB
:100070002A0000000000250028002B0004040404CE
:100080000404040402020202020203030303030342
:10009000010204081020408001020408102001021F
:1000A00004081020000000080002010000030407FB
:1000B0000000000000000000690911241FBECFEFFE
:1000C000D8E0DEBFCDBF22E0AAE5B1E001C01D92BD
:1000D000AF33B207E1F711E0A0E0B1E0E6EFFCE1F9
:1000E00002C005900D92AA35B107D9F710E0CDE511
:1000F000D0E004C02197FE010E94730CCC35D107DB
:10010000C9F70E9486050C94790E0C94000090E0CB
:10011000FC01EC55FF4F2491FC01E057FF4F349157
:10012000FC01E458FF4FE491EE23C9F0222339F09B
:10013000233001F1A8F4213019F1223029F1F0E047
:10014000EE0FFF1FEE58FF4FA591B4918FB7F894B3
:10015000EC91611126C030953E233C938FBF0895EA
:100160002730A9F02830C9F0243049F78091800069
:100170008F7D03C0809180008F7780938000DFCFD8
:1001800084B58F7784BDDBCF84B58F7DFBCF809125
:10019000B0008F778093B000D2CF8091B0008F7D78
:1001A000F9CF3E2BDACF3FB7F89480919A01909126
:1001B0009B01A0919C01B0919D0126B5A89B05C013
:1001C0002F3F19F00196A11DB11D3FBFBA2FA92FD6
:1001D000982F8827BC01CD01620F711D811D911DD3
:1001E00042E0660F771F881F991F4A95D1F708953F
:1001F0002FB7F894609196017091970180919801C2
:10020000909199012FBF0895AF92BF92CF92DF9244
:10021000EF92FF920F931F93CF93DF936C017B01BB
:100220008B01040F151FEB015E01AE18BF08C0174C
:10023000D10759F06991D601ED91FC910190F081BF
:10024000E02DC6010995892B79F7C501DF91CF9182
:100250001F910F91FF90EF90DF90CF90BF90AF90E4
:100260000895FC01538D448D252F30E0842F90E0BC
:10027000821B930B541710F0CF96089501970895A1
:10028000FC01918D828D981761F0A28DAE0FBF2F6A
:10029000B11D5D968C91928D9F5F9F73928F90E0C0
:1002A00008958FEF9FEF08950F931F930E94F8001A
:1002B0006093A6017093A7018093A8019093A90170
:1002C0008EE991E00E94400197FF1DC00E94F80056
:1002D0000091A6011091A7012091A8013091A901D8
:1002E000601B710B820B930B0091A2011091A30173
:1002F0002091A4013091A50160177107820793072F
:10030000F8F28FEF9FEF1F910F910895FC01918DEF
:10031000828D981731F0828DE80FF11D858D90E068
:1003200008958FEF9FEF0895FC01918D228D892F05
:1003300090E0805C9F4F821B91098F7399270895ED
:100340008EE991E00E94940121E0892B09F420E0DC
:10035000822F089580E090E0892B29F00E94A0016F
:1003600081110C9400000895FC01A48DA80FB92FF1
:10037000B11DA35ABF4F2C91848D90E001968F73CD
:100380009927848FA689B7892C93A089B1898C91EC
:10039000837080648C93938D848D981306C002883B
:1003A000F389E02D80818F7D80830895EF92FF9205
:1003B0000F931F93CF93DF93EC0181E0888F9B8D88
:1003C0008C8D98131AC0E889F989808185FF15C042
:1003D0009FB7F894EE89FF896083E889F989808165
:1003E0008370806480839FBF81E090E0DF91CF9134
:1003F0001F910F91FF90EF900895F62E0B8D10E056
:100400000F5F1F4F0F731127E02E8C8D8E110CC0C4
:100410000FB607FCFACFE889F989808185FFF5CF0F
:10042000CE010E94B401F1CFEB8DEC0FFD2FF11D39
:10043000E35AFF4FF0829FB7F8940B8FEA89FB894C
:1004400080818062CFCFCF93DF93EC01888D8823AA
:10045000B9F0AA89BB89E889F9898C9185FD03C027
:10046000808186FD0DC00FB607FCF7CF8C9185FF0C
:10047000F2CF808185FFEDCFCE010E94B401E9CF9C
:10048000DF91CF9108952F923F924F925F926F929A
:100490007F928F929F92AF92BF92CF92DF92EF9214
:1004A000FF920F931F93CF93DF9300D000D0CDB76F
:1004B000DEB70E94F8004B015C01209102013091EF
:1004C00003013A8329834EE751E05C834B838EE638
:1004D000E82E81E0F82E0AE511E094E0292E91E063
:1004E000392ED12CC12C89819A818C159D0591F5CD
:1004F000EB81FC811082118212821382FFEFCF1AEE
:10050000DF0A2B813C812C5F3F4F3C832B8334E0FF
:10051000E30EF11C0C5F1F4F44E0240E311C54E02D
:10052000C516D10401F70F900F900F900F90DF9137
:10053000CF911F910F91FF90EF90DF90CF90BF90E0
:10054000AF909F908F907F906F905F904F903F9073
:100550002F900895F10180819181A281B3811816B5
:1005600019061A061B060CF03EC0F8018081918125
:10057000A281B381A5019401281B390B4A0B5B0BA7
:10058000CA01B9010E94E00920E030E04AE754E4E2
:100590000E94A60B20E030E040EE50E40E94410AA9
:1005A000F70120813181428153810E943A0B2B0156
:1005B0003C0120E030E040EF52E40E94470C181666
:1005C0003CF0EB81FC81408251826282738296CF43
:1005D00080E090E0A0EFB2E4EB81FC818083918326
:1005E000A283B3838BCFEB81FC81108211821282B4
:1005F0001382F7011082118212821382F801808225
:100600009182A282B3827ACF60E089E00E94870063
:1006100060E08AE00E94870060E08BE00E94870033
:1006200060E08CE00C948700FC0101900020E9F769
:100630003197AF01481B590BBC018EE991E00C9436
:1006400004018F929F92AF92BF920F931F93CF930B
:10065000DF93CDB7DEB7A1970FB6F894DEBF0FBE1C
:10066000CDBF19A2423008F44AE08E010F5D1F4F42
:10067000842E912CB12CA12CA50194010E94510C27
:10068000E62FB901CA01EA30F4F4E05DD801EE9337
:100690008D01232B242B252B79F790E080E01097F8
:1006A00019F0CD010E941403A1960FB6F894DEBF95
:1006B0000FBECDBFDF91CF911F910F91BF90AF9033
:1006C0009F908F900895E95CE1CFCF92DF92EF92F7
:1006D000FF92CF93DF936B017C016DE28EE991E095
:1006E0000E94D601EC0166277727CB016C197D09A2
:1006F0008E099F094AE00E9421038C0F9D1FDF9104
:10070000CF91FF90EF90DF90CF9008950F931F93BC
:10071000CF93DF93EC0188819981009759F02A816A
:100720003B812617370730F081E0DF91CF911F9191
:100730000F9108958B016F5F7F4F0E949E0D009770
:1007400059F0998388831B830A832C813D81232B55
:1007500059F7FC011082E8CF80E0E7CFCF93DF9319
:10076000EC0188819981009711F00E94150D198282
:1007700018821D821C821B821A82DF91CF910895FC
:10078000EF92FF920F931F93CF93DF938C017B0126
:10079000EB0109900020E9F72197C61BD70BBE019A
:1007A0000E948603811109C0C801DF91CF911F917A
:1007B0000F91FF90EF900C94AE03F801D583C483A2
:1007C000B70180819181DF91CF911F910F91FF90AF
:1007D000EF900C94640EFC0180819181009711F0E0
:1007E0000C94150D08958F929F92AF92BF92CF9265
:1007F000DF92EF92FF920F931F93CF93DF9384E3E7
:1008000091E00E941403C4E0D1E06991799189914B
:10081000999197FF55C00E9465038DE491E00E9475
:10082000140381E0C431D80781F70EE711E0D0E06E
:10083000C0E0F801C190D190E190F1908F0120E0EB
:1008400030E040EF52E4C701B6010E94470C181691
:10085000DCF1A7019601C701B6010E944C0C882368
:10086000C9F187E391E00E941403C330D10521F060
:100870008DE491E00E9414032196C430D105C9F69D
:100880008DE491E00E9414036091020170910301D4
:10089000072E000C880B990B97FF92C00E946503EE
:1008A00083E491E0DF91CF911F910F91FF90EF9042
:1008B000DF90CF90BF90AF909F908F900C941403D7
:1008C0004AE00E942103A9CFC12CD12C80EFE82E51
:1008D00082E4F82E46015701E894B7F82FEF3FEF76
:1008E0004FE75FE7C501B4010E944C0C81110DC0B8
:1008F0002FEF3FEF4FE75FE7C501B4010E94DB092F
:1009000018161CF48BE391E0AECF2FEF3FEF4FE7CB
:100910005FE4C701B6010E94470C18161CF48FE370
:1009200091E0A1CF2FEF3FEF4FE75FECC701B6019A
:100930000E94DB0987FDF3CF20E030E0A901C70169
:10094000B6010E94DB0987FF09C06DE28EE991E0E4
:100950000E94D601F7FAF094F7F8F0942DEC3CECF5
:100960004CE45DE3C701B6010E943A0B4B015C0108
:100970000E94180C6B017C010E94E0099B01AC01F4
:10098000C501B4010E94390B4B015C014AE0C7016B
:10099000B6010E9421036EE28EE991E00E94D60129
:1009A00020E030E040E251E4C501B4010E94410A78
:1009B0000E94180C90E080E04AE00E94210355CF8D
:1009C0004AE00E9421036CCF1F920F920FB60F9244
:1009D00011242F933F938F939F93AF93BF93809155
:1009E000960190919701A0919801B0919901309151
:1009F000950123E0230F2D3758F50196A11DB11D58
:100A0000209395018093960190939701A09398016C
:100A1000B093990180919A0190919B01A0919C01C2
:100A2000B0919D010196A11DB11D80939A019093F3
:100A30009B01A0939C01B0939D01BF91AF919F91A9
:100A40008F913F912F910F900FBE0F901F9018958F
:100A500026E8230F0296A11DB11DD2CF1F920F923F
:100A60000FB60F9211242F933F934F935F936F9381
:100A70007F938F939F93AF93BF93EF93FF938EE9F1
:100A800091E00E94B401FF91EF91BF91AF919F91CE
:100A90008F917F916F915F914F913F912F910F9027
:100AA0000FBE0F901F9018951F920F920FB60F92C6
:100AB00011242F938F939F93EF93FF93E091AE01B7
:100AC000F091AF018081E091B401F091B50182FD18
:100AD0001BC090818091B7018F5F8F732091B80107
:100AE000821741F0E091B701F0E0E256FE4F958F9A
:100AF0008093B701FF91EF919F918F912F910F906C
:100B00000FBE0F901F9018958081F4CFCF93DF9385
:100B1000CDB7DEB72C970FB6F894DEBF0FBECDBFB2
:100B2000789484B5826084BD84B5816084BD85B5C8
:100B3000826085BD85B5816085BD80916E008160D4
:100B400080936E001092810080918100826080937A
:100B5000810080918100816080938100809180007C
:100B60008160809380008091B10084608093B100A7
:100B70008091B00081608093B00080917A008460A1
:100B800080937A0080917A00826080937A008091CD
:100B90007A00816080937A0080917A0080688093E7
:100BA0007A001092C100E091AE01F091AF0182E0B5
:100BB0008083E091AA01F091AB011082E091AC0139
:100BC000F091AD018FEC80831092B601E091B201FB
:100BD000F091B30186E08083E091B001F091B10122
:100BE000808180618083E091B001F091B1018081CA
:100BF00088608083E091B001F091B10180818068CC
:100C00008083E091B001F091B10180818F7D80837C
:100C1000E3E9F0E02491EFE7F0E084918823C9F064
:100C200090E0880F991FFC01E859FF4F45915491BE
:100C3000FC01EE58FF4FA591B4919FB7F894FA01CB
:100C40003081822F809583238083EC91E22BEC937B
:100C50009FBF0CE211E024E3E22E21E0F22EF80126
:100C6000819191918F019C013327F901E057FF4F4A
:100C7000449124583F4FF9012491222399F030E008
:100C8000220F331FF901E859FF4FA591B491F901E3
:100C9000EE58FF4F259134912FB7F894EC914E2BDD
:100CA0004C932FBF60E00E948700E016F106B9F672
:100CB0000E94F800EAE5F1E02AE631E0AEE6B1E0B4
:100CC00061937193819391931D921D921D921D9238
:100CD0002E173F07A9F786E491E00E94140383E4EE
:100CE00091E00E9414030E94D3004B015C0114EFB9
:100CF000C12EDD24D394E12CF12C0E94D30068197D
:100D000079098A099B09683E734081059105A8F31A
:100D1000F1E0CF1AD108E108F10828EE820E23E0B5
:100D2000921EA11CB11CC114D104E104F10429F7E5
:100D30000E94F30381E080939201B4E1AB2EB1E015
:100D4000BB2EAEE82A2EA1E03A2E552453940E94E1
:100D5000430280919301882309F484C00E94F80023
:100D600000916A0110916B0120916C0130916D012D
:100D7000601B710B820B930B683E734081059105DC
:100D800008F470C0109293010091000110910101CC
:100D900017FDB8C06801CC0CDD1CCC0CDD1CF601C5
:100DA000EC5FFE4F80819181A281B38118161906F4
:100DB0001A061B060CF0A6C0E0900201F090030199
:100DC000109303010093020150929401109292013A
:100DD0008FEF9FEF90930101809300010E94F80034
:100DE0003B014C01F7FC16C00E151F0599F0C70119
:100DF000880F991F880F991FFC01E65AFE4F6082E9
:100E000071828282938282599E4FFC0110821182EC
:100E100012821382F601E259FE4F10821182128271
:100E20001382F601E65AFE4F6082718282829382BB
:100E3000F601E258FE4F10821182128213820E9444
:100E40000403000F111FF801E45DFE4F61E0808193
:100E50000E94870060928E0170928F0180929001B3
:100E60009092910180919401811117C0809193011A
:100E7000811113C08091920181110FC0E4E0F1E073
:100E800081919191A191B191181619061A061B062C
:100E90000CF415C2AE16BF0699F78EE991E00E94D8
:100EA0009401892B09F4EEC018861F821A861986D0
:100EB0001C861B8665E471E0CE0107960E94C00384
:100EC0000E94540197FD23C08A30910501F1898366
:100ED0001A820B851C850F5F1F4FB801CE01079644
:100EE0000E948603882361F32F8138858B859C853A
:100EF000BE016F5F7F4F820F931F0E94640E1C879D
:100F00000B87DECF509292010E94F303ABCFCF80CC
:100F1000D884C114D10439F00B851C8576010115E4
:100F2000110509F034C11A8219821C821B821E82AB
:100F30001D826CE471E0CE0101960E94C0034D81D8
:100F40005E818B859C858417950770F08F819885CD
:100F5000009751F069817A816115710529F00E942D
:100F60006B0E11E0892B09F010E0CE0101960E9472
:100F7000EB03112309F482C0CB84DC8452E0E52E1C
:100F8000F12CF2E0CF16D10420F4760162E0C62EF7
:100F9000D12C1A8219821C821B821E821D8265E45A
:100FA00071E0CE0101960E94C0030B851C85E016FE
:100FB000F10650F5C016D10608F48601EF81F885D8
:100FC000E00FF11F708010828F819885E80EF91E66
:100FD000E114F10479F0F70101900020E9F731976D
:100FE0006F01CE18DF08B601CE0101960E9486037C
:100FF000811103C1CE0101960E94AE038F819885B5
:10100000080F191FF801708289819A81C12CD12C97
:101010007601009719F00E9496096B01CE010196A6
:101020000E94EB03F4E0CF16D10440F5860146019F
:10103000880C991C880C991CF401EC5FFE4F808190
:101040009181A281B381181619061A061B06B4F401
:101050008091020190910301C816D90609F0D5C00C
:1010600050929401109292010E94F80060938E01B8
:1010700070938F018093900190939101CE01079618
:101080000E94EB0380919401882309F472C00E94AE
:10109000F80000918E0110918F0120919001309104
:1010A0009101601B710B820B930B643C79408105AD
:1010B000910508F45EC08091020190910301880FB0
:1010C000991F880F991FFC01EC5FFE4F40815181F1
:1010D000628173818A01403151056105710524F0F7
:1010E0000FE010E020E030E0012E000C220B330B6B
:1010F000401B510B620B730B8C5F9E4FFC0177FD05
:10110000D9C04083518362837383109294015092BB
:101110009201E4E0F1E081919191A191B1911816D1
:1011200019061A061B060CF4CFC0AE16BF0699F7B7
:101130000E940403EFEFFFEFF0930301E09302013D
:1011400010929201EEE7F1E0AEE6B1E01192119259
:10115000119211921D921D921D921D922E163F0604
:10116000A9F78FE491E00E94140383E491E00E94C8
:10117000140380E090E0892B09F4E9CD0E94A001DE
:10118000882309F4E2CD0E940000DBCD7301370112
:10119000FFEF6F1A7F0AF7018081082E000C990B70
:1011A0000E94D209892B91F7015011090C0D1D1DC8
:1011B000F8018081082E000C990B0E94D209892B1E
:1011C00031F00E151F0518F001501109F1CF0F5F16
:1011D0001F4FA8014E195F095C874B87CE14DF04AF
:1011E00020F4B701C6010E945B0EEF81F8858B8564
:1011F0009C85E80FF91F108296CEDE82CD82B70162
:1012000089819A810E94640EF9CE8F3F9807B9F0C8
:101210000E94040350929301109294011092920143
:10122000D0920101C09200010E94F80060936A010F
:1012300070936B0180936C0190936D011FCFD092DE
:101240000301C092020150929401109293011092F6
:10125000920190930101809300010E94F8006B01BC
:101260007C01F401E259FE4F108211821282138236
:10127000F401E65AFE4FC082D182E282F382F40189
:10128000E258FE4F10821182128213820E940403E0
:10129000000F111FF801E45DFE4F61E080810E94A4
:1012A0008700C0928E01D0928F01E0929001F0925F
:1012B0009101E4CE108211821282138226CF0E9405
:1012C000F30350929201E9CD0E9443020E94F3037E
:1012D00050CFEEE9F1E01382128288EE93E0A0E0B5
:1012E000B0E084839583A683B7838EE191E09183F8
:1012F000808385EC90E09587848784EC90E09787E5
:10130000868780EC90E0918B808B81EC90E0938BD2
:10131000828B82EC90E0958B848B86EC90E0978BAF
:10132000868B118E128E138E148E08951F93FC01DE
:1013300099278827BC01E89411911032E9F31930FC
:1013400010F01E30C8F31B3251F01D3249F468947E
:1013500006C00E94BD09610F711D811D911D119173
:1013600010531A30B0F33EF49095809570956195C6
:101370007F4F8F4F9F4F1F910895592F482F372F21
:10138000262F660F771F881F991F660F771F881FEC
:10139000991F620F731F841F951F660F771F881F89
:1013A000991F089591110C94AE0A803219F089505A
:1013B0008550C8F708950E941D0A08F481E0089539
:1013C000E89409C097FB3EF49095809570956195DF
:1013D0007F4F8F4F9F4F9923A9F0F92F96E9BB2795
:1013E0009395F695879577956795B795F111F8CF11
:1013F000FAF4BB0F11F460FF1BC06F5F7F4F8F4F7C
:101400009F4F16C0882311F096E911C0772321F071
:101410009EE8872F762F05C0662371F096E8862F09
:1014200070E060E02AF09A95660F771F881FDAF760
:10143000880F9695879597F90895990F0008550F8D
:10144000AA0BE0E8FEEF16161706E807F907C0F04A
:1014500012161306E407F50798F0621B730B840B52
:10146000950B39F40A2661F0232B242B252B21F42C
:1014700008950A2609F4A140A6958FEF811D811DCC
:1014800008950E94540A0C94C80A0E94BA0A38F0BF
:101490000E94C10A20F0952311F00C94B10A0C941B
:1014A000B70A11240C94FC0A0E94D90A70F3959F84
:1014B000C1F3950F50E0551F629FF001729FBB274B
:1014C000F00DB11D639FAA27F00DB11DAA1F649FE7
:1014D0006627B00DA11D661F829F2227B00DA11D9A
:1014E000621F739FB00DA11D621F839FA00D611D20
:1014F000221F749F3327A00D611D231F849F600D41
:10150000211D822F762F6A2F11249F5750409AF069
:10151000F1F088234AF0EE0FFF1FBB1F661F771FF5
:10152000881F91505040A9F79E3F510580F00C94C0
:10153000B10A0C94FC0A5F3FE4F3983ED4F386951D
:1015400077956795B795F795E7959F5FC1F7FE2B60
:10155000880F911D9695879597F908959927882763
:10156000089597F99F6780E870E060E008959FEF25
:1015700080EC089500240A9416161706180609062A
:10158000089500240A9412161306140605060895F9
:10159000092E0394000C11F4882352F0BB0F40F481
:1015A000BF2B11F460FF04C06F5F7F4F8F4F9F4FC1
:1015B000089557FD9058440F551F59F05F3F71F043
:1015C0004795880F97FB991F61F09F3F79F08795AA
:1015D0000895121613061406551FF2CF4695F1DF33
:1015E00008C0161617061806991FF1CF86957105C3
:1015F000610508940895E894BB2766277727CB01F7
:1016000097F908952F923F924F925F926F927F9237
:101610008F929F92AF92BF92CF92DF92EF92FF9202
:101620000F931F93CF93DF93CDB7DEB7CA1BDB0BAE
:101630000FB6F894DEBF0FBECDBF09942A88398853
:1016400048885F846E847D848C849B84AA84B9845A
:10165000C884DF80EE80FD800C811B81AA81B98166
:10166000CE0FD11D0FB6F894DEBF0FBECDBFED017A
:1016700008955058BB27AA270E94510B0C94C80A02
:101680000E94BA0A38F00E94C10A20F039F49F3F44
:1016900019F426F40C94B70A0EF4E095E7FB0C94C9
:1016A000B10AE92F0E94D90A58F3BA1762077307E3
:1016B0008407950720F079F4A6F50C94FB0A0EF444
:1016C000E0950B2EBA2FA02D0B01B90190010C0152
:1016D000CA01A0011124FF27591B99F0593F50F46A
:1016E000503E68F11A16F040A22F232F342F4427C2
:1016F000585FF3CF469537952795A795F0405395BA
:10170000C9F77EF41F16BA0B620B730B840BBAF089
:101710009150A1F0FF0FBB1F661F771F881FC2F7F4
:101720000EC0BA0F621F731F841F48F48795779508
:101730006795B795F7959E3F08F0B0CF9395880FC2
:1017400008F09927EE0F9795879508950E94BA0B98
:101750000C94C80A0E94C10A58F00E94BA0A40F0CC
:1017600029F45F3F29F00C94B10A51110C94FC0A42
:101770000C94B70A0E94D90A68F39923B1F3552350
:1017800091F3951B550BBB27AA2762177307840794
:1017900038F09F5F5F4F220F331F441FAA1FA9F32A
:1017A00035D00E2E3AF0E0E832D091505040E69518
:1017B000001CCAF72BD0FE2F29D0660F771F881F79
:1017C000BB1F261737074807AB07B0E809F0BB0B6C
:1017D000802DBF01FF2793585F4F3AF09E3F510580
:1017E00078F00C94B10A0C94FC0A5F3FE4F3983E45
:1017F000D4F3869577956795B795F7959F5FC9F769
:10180000880F911D9695879597F90895E1E0660FE9
:10181000771F881FBB1F621773078407BA0720F062
:10182000621B730B840BBA0BEE1F88F7E0950895CB
:101830000E94E10A88F09F5798F0B92F9927B75175
:10184000B0F0E1F0660F771F881F991F1AF0BA9564
:10185000C9F714C0B13091F00E94FB0AB1E00895BD
:101860000C94FB0A672F782F8827B85F39F0B93FAF
:10187000CCF3869577956795B395D9F73EF4909517
:101880008095709561957F4F8F4F9F4F08950E946F
:101890001D0A08F48FEF08950E941D0A880B990B0A
:1018A0000895A1E21A2EAA1BBB1BFD010DC0AA1FA1
:1018B000BB1FEE1FFF1FA217B307E407F50720F0B9
:1018C000A21BB30BE40BF50B661F771F881F991F34
:1018D0001A9469F760957095809590959B01AC017D
:1018E000BD01CF010895EE0FFF1F0590F491E02D8B
:1018F00009940F931F93CF93DF938230910510F4D7
:1019000082E090E0E0913D02F0913E0230E020E084
:10191000B0E0A0E0309799F42115310509F44AC0F0
:10192000281B390B24303105D8F58A819B8161153C
:10193000710589F1FB0193838283FE0111C040810F
:1019400051810281138148175907E0F04817590760
:1019500099F4109761F012960C93129713961C93BA
:101960003296CF01DF91CF911F910F91089500938F
:101970003D0210933E02F4CF2115310551F042177C
:10198000530738F0A901DB019A01BD01DF01F8011D
:10199000C1CFEF01F9CF90933E0280933D02CDCFAE
:1019A000FE01E20FF31F8193919322503109398395
:1019B0002883D7CF20913B0230913C02232B41F466
:1019C000209116013091170130933C0220933B0285
:1019D00020911401309115012115310541F42DB7E5
:1019E0003EB74091180150911901241B350BE0912D
:1019F0003B02F0913C02E217F307A0F42E1B3F0BD1
:101A00002817390778F0AC014E5F5F4F2417350770
:101A100048F04E0F5F1F50933C0240933B0281936E
:101A200091939FCFF0E0E0E09CCFCF93DF930097BE
:101A3000E9F0FC01329713821282A0913D02B0912D
:101A40003E02ED0130E020E01097A1F420813181C9
:101A5000820F931F20913B0230913C0228173907D7
:101A600009F061C0F0933C02E0933B02DF91CF911B
:101A70000895EA01CE17DF07E8F54A815B819E01F0
:101A800041155105B1F7E901FB83EA834991599169
:101A9000C40FD51FEC17FD0761F480819181029678
:101AA000840F951FE90199838883828193819B83A9
:101AB0008A83F0E0E0E012968D919C911397009755
:101AC000B9F52D913C911197CD010296820F931F8C
:101AD00020913B0230913C022817390739F63097A4
:101AE00051F510923E0210923D02B0933C02A09339
:101AF0003B02BCCFD383C28340815181840F951FA9
:101B0000C817D90761F44E5F5F4F88819981480FEC
:101B1000591F518340838A819B819383828321153E
:101B2000310509F0B0CFF0933E02E0933D029ECF25
:101B3000FD01DC01C0CF13821282D7CFB0E0A0E05C
:101B4000E4EAFDE00C94040B8C01009751F4CB0106
:101B50000E94790C8C01C801CDB7DEB7E0E10C948E
:101B6000200BFC01E60FF71F9C0122503109E21700
:101B7000F30708F49DC0D901CD91DC911197C617E8
:101B8000D70798F0C530D10530F3CE0104978617FA
:101B9000970708F3C61BD70B2297C193D1936D9378
:101BA0007C93CF010E94150DD6CF5B01AC1ABD0A04
:101BB0004C018C0E9D1EA0913D02B0913E02512C15
:101BC000412CF12CE12C109731F580913B02909142
:101BD0003C028815990509F05CC04616570608F0C6
:101BE00058C08091140190911501009741F48DB770
:101BF0009EB74091180150911901841B950BE8176D
:101C0000F90708F055C0F0933C02E0933B02F9015C
:101C100071836083A0CF8D919C91119712966C90E7
:101C2000129713967C901397A815B90559F56C0176
:101C300042E0C40ED11CCA14DB0420F1AC014A19E5
:101C40005B09DA011296159780F0628273825183E4
:101C50004083D9016D937C93E114F10471F0D701B5
:101C60001396FC93EE93129776CF22968C0F9D1FBE
:101C7000F90191838083F301EFCFF0933E02E0936B
:101C80003D0269CF4816590608F42C017D01D301A5
:101C90009ACFCB010E94790C7C01009749F0AE01EC
:101CA000B8010E945B0EC8010E94150D870153CF39
:101CB00010E000E050CFFB01DC0102C001900D926A
:101CC00041505040D8F70895FB01DC0101900D927E
:101CD0000020E1F70895FB01DC014150504030F055
:101CE0008D910190801919F40020B9F7881B990B88
:101CF0000895F894FFCFFFFFFFFFC80000007500B4
:101D000000001D0000005A00000000003F0280009B
:101D100000000000D60104013101230294014001BA
:101D2000860109000A000B000C00532C006E616E46
:101D300000696E66006F7666000D0A0052454144E8
:101D40005900442C00414C4C5F454D505459000003
:107E0000112484B714BE81FFF0D085E080938100F7
:107E100082E08093C00088E18093C10086E0809377
:107E2000C20080E18093C4008EE0C9D0259A86E02C
:107E300020E33CEF91E0309385002093840096BBD3
:107E4000B09BFECF1D9AA8958150A9F7CC24DD24C4
:107E500088248394B5E0AB2EA1E19A2EF3E0BF2EE7
:107E6000A2D0813461F49FD0082FAFD0023811F036
:107E7000013811F484E001C083E08DD089C08234E0
:107E800011F484E103C0853419F485E0A6D080C0E4
:107E9000853579F488D0E82EFF2485D0082F10E0AE
:107EA000102F00270E291F29000F111F8ED06801E7
:107EB0006FC0863521F484E090D080E0DECF843638
:107EC00009F040C070D06FD0082F6DD080E0C81688
:107ED00080E7D80618F4F601B7BEE895C0E0D1E017
:107EE00062D089930C17E1F7F0E0CF16F0E7DF06D8
:107EF00018F0F601B7BEE89568D007B600FCFDCFD4
:107F0000A601A0E0B1E02C9130E011968C91119780
:107F100090E0982F8827822B932B1296FA010C0160
:107F200087BEE89511244E5F5F4FF1E0A038BF0790
:107F300051F7F601A7BEE89507B600FCFDCF97BE46
:107F4000E89526C08437B1F42ED02DD0F82E2BD052
:107F50003CD0F601EF2C8F010F5F1F4F84911BD097
:107F6000EA94F801C1F70894C11CD11CFA94CF0C13
:107F7000D11C0EC0853739F428D08EE10CD085E9AC
:107F80000AD08FE07ACF813511F488E018D01DD067
:107F900080E101D065CF982F8091C00085FFFCCF94
:107FA0009093C60008958091C00087FFFCCF809118
:107FB000C00084FD01C0A8958091C6000895E0E648
:107FC000F0E098E1908380830895EDDF803219F02E
:107FD00088E0F5DFFFCF84E1DECF1F93182FE3DFCA
:107FE0001150E9F7F2DF1F91089580E0E8DFEE27F6
:047FF000FF270994CA
:027FFE00040479
:00000001FF
